{
  "contractName": "FlashloanDemo",
  "abi": [
    {
      "inputs": [
        {
          "internalType": "address",
          "name": "_aaveLPAddressProvider",
          "type": "address"
        },
        {
          "internalType": "contract IJoeRouter02",
          "name": "_joeRouterAddress",
          "type": "address"
        }
      ],
      "stateMutability": "nonpayable",
      "type": "constructor"
    },
    {
      "anonymous": false,
      "inputs": [
        {
          "indexed": true,
          "internalType": "address",
          "name": "_from",
          "type": "address"
        },
        {
          "indexed": true,
          "internalType": "address",
          "name": "_assetAddress",
          "type": "address"
        },
        {
          "indexed": false,
          "internalType": "uint256",
          "name": "amount",
          "type": "uint256"
        }
      ],
      "name": "LogWithdraw",
      "type": "event"
    },
    {
      "anonymous": false,
      "inputs": [
        {
          "indexed": true,
          "internalType": "address",
          "name": "previousOwner",
          "type": "address"
        },
        {
          "indexed": true,
          "internalType": "address",
          "name": "newOwner",
          "type": "address"
        }
      ],
      "name": "OwnershipTransferred",
      "type": "event"
    },
    {
      "anonymous": false,
      "inputs": [
        {
          "indexed": false,
          "internalType": "address",
          "name": "oldArbitrageContract",
          "type": "address"
        },
        {
          "indexed": false,
          "internalType": "address",
          "name": "newArbitrageContract",
          "type": "address"
        }
      ],
      "name": "UpdatedArbitrageContract",
      "type": "event"
    },
    {
      "inputs": [],
      "name": "ADDRESSES_PROVIDER",
      "outputs": [
        {
          "internalType": "contract ILendingPoolAddressesProvider",
          "name": "",
          "type": "address"
        }
      ],
      "stateMutability": "view",
      "type": "function"
    },
    {
      "inputs": [],
      "name": "LENDING_POOL",
      "outputs": [
        {
          "internalType": "contract ILendingPool",
          "name": "",
          "type": "address"
        }
      ],
      "stateMutability": "view",
      "type": "function"
    },
    {
      "inputs": [],
      "name": "joeRouter",
      "outputs": [
        {
          "internalType": "contract IJoeRouter02",
          "name": "",
          "type": "address"
        }
      ],
      "stateMutability": "view",
      "type": "function"
    },
    {
      "inputs": [],
      "name": "owner",
      "outputs": [
        {
          "internalType": "address",
          "name": "",
          "type": "address"
        }
      ],
      "stateMutability": "view",
      "type": "function"
    },
    {
      "inputs": [],
      "name": "renounceOwnership",
      "outputs": [],
      "stateMutability": "nonpayable",
      "type": "function"
    },
    {
      "inputs": [
        {
          "internalType": "address",
          "name": "newOwner",
          "type": "address"
        }
      ],
      "name": "transferOwnership",
      "outputs": [],
      "stateMutability": "nonpayable",
      "type": "function"
    },
    {
      "inputs": [
        {
          "internalType": "address",
          "name": "_assetAddress",
          "type": "address"
        }
      ],
      "name": "withdraw",
      "outputs": [],
      "stateMutability": "nonpayable",
      "type": "function"
    },
    {
      "stateMutability": "payable",
      "type": "receive"
    },
    {
      "inputs": [
        {
          "internalType": "address[]",
          "name": "assets",
          "type": "address[]"
        },
        {
          "internalType": "uint256[]",
          "name": "amounts",
          "type": "uint256[]"
        },
        {
          "internalType": "uint256[]",
          "name": "premiums",
          "type": "uint256[]"
        },
        {
          "internalType": "address",
          "name": "initiator",
          "type": "address"
        },
        {
          "internalType": "bytes",
          "name": "params",
          "type": "bytes"
        }
      ],
      "name": "executeOperation",
      "outputs": [
        {
          "internalType": "bool",
          "name": "",
          "type": "bool"
        }
      ],
      "stateMutability": "nonpayable",
      "type": "function"
    },
    {
      "inputs": [
        {
          "internalType": "address",
          "name": "_asset",
          "type": "address"
        },
        {
          "internalType": "uint256",
          "name": "_amount",
          "type": "uint256"
        }
      ],
      "name": "flashloan",
      "outputs": [],
      "stateMutability": "nonpayable",
      "type": "function"
    }
  ],
  "bytecode": "0x60e060405234801561001057600080fd5b506040516118b83803806118b88339818101604052604081101561003357600080fd5b810190808051906020019092919080519060200190929190505050818073ffffffffffffffffffffffffffffffffffffffff1660808173ffffffffffffffffffffffffffffffffffffffff1660601b815250508073ffffffffffffffffffffffffffffffffffffffff16630261bf8b6040518163ffffffff1660e01b815260040160206040518083038186803b1580156100cc57600080fd5b505afa1580156100e0573d6000803e3d6000fd5b505050506040513d60208110156100f657600080fd5b810190808051906020019092919050505073ffffffffffffffffffffffffffffffffffffffff1660a08173ffffffffffffffffffffffffffffffffffffffff1660601b8152505050600061014e61022a60201b60201c565b9050806000806101000a81548173ffffffffffffffffffffffffffffffffffffffff021916908373ffffffffffffffffffffffffffffffffffffffff1602179055508073ffffffffffffffffffffffffffffffffffffffff16600073ffffffffffffffffffffffffffffffffffffffff167f8be0079c531659141344cd1fd0a4f28419497f9722a3daafe3b4186f6b6457e060405160405180910390a3508073ffffffffffffffffffffffffffffffffffffffff1660c08173ffffffffffffffffffffffffffffffffffffffff1660601b815250505050610232565b600033905090565b60805160601c60a05160601c60c05160601c61164761027160003980610719525080610b395280610c0a5280610f6a52508061046b52506116476000f3fe60806040526004361061008a5760003560e01c80638da5cb5b116100595780638da5cb5b146101805780638e5f5f57146101c1578063920f5c841461021c578063b4dcfc77146103d7578063f2fde38b1461041857610091565b80630542975c1461009657806351cff8d9146100d757806359f571e814610128578063715018a61461016957610091565b3661009157005b600080fd5b3480156100a257600080fd5b506100ab610469565b604051808273ffffffffffffffffffffffffffffffffffffffff16815260200191505060405180910390f35b3480156100e357600080fd5b50610126600480360360208110156100fa57600080fd5b81019080803573ffffffffffffffffffffffffffffffffffffffff16906020019092919050505061048d565b005b34801561013457600080fd5b5061013d610717565b604051808273ffffffffffffffffffffffffffffffffffffffff16815260200191505060405180910390f35b34801561017557600080fd5b5061017e61073b565b005b34801561018c57600080fd5b506101956108a8565b604051808273ffffffffffffffffffffffffffffffffffffffff16815260200191505060405180910390f35b3480156101cd57600080fd5b5061021a600480360360408110156101e457600080fd5b81019080803573ffffffffffffffffffffffffffffffffffffffff169060200190929190803590602001909291905050506108d1565b005b34801561022857600080fd5b506103bf600480360360a081101561023f57600080fd5b810190808035906020019064010000000081111561025c57600080fd5b82018360208201111561026e57600080fd5b8035906020019184602083028401116401000000008311171561029057600080fd5b9091929391929390803590602001906401000000008111156102b157600080fd5b8201836020820111156102c357600080fd5b803590602001918460208302840111640100000000831117156102e557600080fd5b90919293919293908035906020019064010000000081111561030657600080fd5b82018360208201111561031857600080fd5b8035906020019184602083028401116401000000008311171561033a57600080fd5b9091929391929390803573ffffffffffffffffffffffffffffffffffffffff1690602001909291908035906020019064010000000081111561037b57600080fd5b82018360208201111561038d57600080fd5b803590602001918460018302840111640100000000831117156103af57600080fd5b9091929391929390505050610aa5565b60405180821515815260200191505060405180910390f35b3480156103e357600080fd5b506103ec610c08565b604051808273ffffffffffffffffffffffffffffffffffffffff16815260200191505060405180910390f35b34801561042457600080fd5b506104676004803603602081101561043b57600080fd5b81019080803573ffffffffffffffffffffffffffffffffffffffff169060200190929190505050610c2c565b005b7f000000000000000000000000000000000000000000000000000000000000000081565b610495610e1e565b73ffffffffffffffffffffffffffffffffffffffff166104b36108a8565b73ffffffffffffffffffffffffffffffffffffffff161461053c576040517f08c379a00000000000000000000000000000000000000000000000000000000081526004018080602001828103825260208152602001807f4f776e61626c653a2063616c6c6572206973206e6f7420746865206f776e657281525060200191505060405180910390fd5b60008073ffffffffffffffffffffffffffffffffffffffff168273ffffffffffffffffffffffffffffffffffffffff1614156105de5760003090508073ffffffffffffffffffffffffffffffffffffffff163191503373ffffffffffffffffffffffffffffffffffffffff166108fc839081150290604051600060405180830381858888f193505050501580156105d7573d6000803e3d6000fd5b50506106ae565b8173ffffffffffffffffffffffffffffffffffffffff166370a08231306040518263ffffffff1660e01b8152600401808273ffffffffffffffffffffffffffffffffffffffff16815260200191505060206040518083038186803b15801561064557600080fd5b505afa158015610659573d6000803e3d6000fd5b505050506040513d602081101561066f57600080fd5b810190808051906020019092919050505090506106ad33828473ffffffffffffffffffffffffffffffffffffffff16610e269092919063ffffffff16565b5b8173ffffffffffffffffffffffffffffffffffffffff163373ffffffffffffffffffffffffffffffffffffffff167f9207361cc2a04b9c7a06691df1eb87c6a63957ae88bf01d0d18c81e3d1272099836040518082815260200191505060405180910390a35050565b7f000000000000000000000000000000000000000000000000000000000000000081565b610743610e1e565b73ffffffffffffffffffffffffffffffffffffffff166107616108a8565b73ffffffffffffffffffffffffffffffffffffffff16146107ea576040517f08c379a00000000000000000000000000000000000000000000000000000000081526004018080602001828103825260208152602001807f4f776e61626c653a2063616c6c6572206973206e6f7420746865206f776e657281525060200191505060405180910390fd5b600073ffffffffffffffffffffffffffffffffffffffff1660008054906101000a900473ffffffffffffffffffffffffffffffffffffffff1673ffffffffffffffffffffffffffffffffffffffff167f8be0079c531659141344cd1fd0a4f28419497f9722a3daafe3b4186f6b6457e060405160405180910390a360008060006101000a81548173ffffffffffffffffffffffffffffffffffffffff021916908373ffffffffffffffffffffffffffffffffffffffff160217905550565b60008060009054906101000a900473ffffffffffffffffffffffffffffffffffffffff16905090565b6108d9610e1e565b73ffffffffffffffffffffffffffffffffffffffff166108f76108a8565b73ffffffffffffffffffffffffffffffffffffffff1614610980576040517f08c379a00000000000000000000000000000000000000000000000000000000081526004018080602001828103825260208152602001807f4f776e61626c653a2063616c6c6572206973206e6f7420746865206f776e657281525060200191505060405180910390fd5b606060405180602001604052806000815250905060008290506060600167ffffffffffffffff811180156109b357600080fd5b506040519080825280602002602001820160405280156109e25781602001602082028036833780820191505090505b50905084816000815181106109f357fe5b602002602001019073ffffffffffffffffffffffffffffffffffffffff16908173ffffffffffffffffffffffffffffffffffffffff16815250506060600167ffffffffffffffff81118015610a4757600080fd5b50604051908082528060200260200182016040528015610a765781602001602082028036833780820191505090505b5090508281600081518110610a8757fe5b602002602001018181525050610a9d8282610ec8565b505050505050565b600080600090505b8a8a9050811015610bf6576000610af1888884818110610ac957fe5b905060200201358b8b85818110610adc57fe5b9050602002013561118490919063ffffffff16565b90508b8b83818110610aff57fe5b9050602002013573ffffffffffffffffffffffffffffffffffffffff1673ffffffffffffffffffffffffffffffffffffffff1663095ea7b37f0000000000000000000000000000000000000000000000000000000000000000836040518363ffffffff1660e01b8152600401808373ffffffffffffffffffffffffffffffffffffffff16815260200182815260200192505050602060405180830381600087803b158015610bac57600080fd5b505af1158015610bc0573d6000803e3d6000fd5b505050506040513d6020811015610bd657600080fd5b810190808051906020019092919050505050508080600101915050610aad565b50600190509998505050505050505050565b7f000000000000000000000000000000000000000000000000000000000000000081565b610c34610e1e565b73ffffffffffffffffffffffffffffffffffffffff16610c526108a8565b73ffffffffffffffffffffffffffffffffffffffff1614610cdb576040517f08c379a00000000000000000000000000000000000000000000000000000000081526004018080602001828103825260208152602001807f4f776e61626c653a2063616c6c6572206973206e6f7420746865206f776e657281525060200191505060405180910390fd5b600073ffffffffffffffffffffffffffffffffffffffff168173ffffffffffffffffffffffffffffffffffffffff161415610d61576040517f08c379a000000000000000000000000000000000000000000000000000000000815260040180806020018281038252602681526020018061159c6026913960400191505060405180910390fd5b8073ffffffffffffffffffffffffffffffffffffffff1660008054906101000a900473ffffffffffffffffffffffffffffffffffffffff1673ffffffffffffffffffffffffffffffffffffffff167f8be0079c531659141344cd1fd0a4f28419497f9722a3daafe3b4186f6b6457e060405160405180910390a3806000806101000a81548173ffffffffffffffffffffffffffffffffffffffff021916908373ffffffffffffffffffffffffffffffffffffffff16021790555050565b600033905090565b610ec38363a9059cbb60e01b8484604051602401808373ffffffffffffffffffffffffffffffffffffffff16815260200182815260200192505050604051602081830303815290604052907bffffffffffffffffffffffffffffffffffffffffffffffffffffffff19166020820180517bffffffffffffffffffffffffffffffffffffffffffffffffffffffff838183161783525050505061120c565b505050565b60003090506000309050606060405180602001604052806000815250905060006060865167ffffffffffffffff81118015610f0257600080fd5b50604051908082528060200260200182016040528015610f315781602001602082028036833780820191505090505b50905060005b8751811015610f67576000828281518110610f4e57fe5b6020026020010181815250508080600101915050610f37565b507f000000000000000000000000000000000000000000000000000000000000000073ffffffffffffffffffffffffffffffffffffffff1663ab9c4b5d868989858989896040518863ffffffff1660e01b8152600401808873ffffffffffffffffffffffffffffffffffffffff1681526020018060200180602001806020018773ffffffffffffffffffffffffffffffffffffffff168152602001806020018661ffff16815260200185810385528b818151815260200191508051906020019060200280838360005b8381101561104b578082015181840152602081019050611030565b5050505090500185810384528a818151815260200191508051906020019060200280838360005b8381101561108d578082015181840152602081019050611072565b50505050905001858103835289818151815260200191508051906020019060200280838360005b838110156110cf5780820151818401526020810190506110b4565b50505050905001858103825287818151815260200191508051906020019080838360005b8381101561110e5780820151818401526020810190506110f3565b50505050905090810190601f16801561113b5780820380516001836020036101000a031916815260200191505b509b505050505050505050505050600060405180830381600087803b15801561116357600080fd5b505af1158015611177573d6000803e3d6000fd5b5050505050505050505050565b600080828401905083811015611202576040517f08c379a000000000000000000000000000000000000000000000000000000000815260040180806020018281038252601b8152602001807f536166654d6174683a206164646974696f6e206f766572666c6f77000000000081525060200191505060405180910390fd5b8091505092915050565b606061126e826040518060400160405280602081526020017f5361666545524332303a206c6f772d6c6576656c2063616c6c206661696c65648152508573ffffffffffffffffffffffffffffffffffffffff166112fb9092919063ffffffff16565b90506000815111156112f65780806020019051602081101561128f57600080fd5b81019080805190602001909291905050506112f5576040517f08c379a000000000000000000000000000000000000000000000000000000000815260040180806020018281038252602a8152602001806115e8602a913960400191505060405180910390fd5b5b505050565b606061130a8484600085611313565b90509392505050565b60608247101561136e576040517f08c379a00000000000000000000000000000000000000000000000000000000081526004018080602001828103825260268152602001806115c26026913960400191505060405180910390fd5b611377856114bc565b6113e9576040517f08c379a000000000000000000000000000000000000000000000000000000000815260040180806020018281038252601d8152602001807f416464726573733a2063616c6c20746f206e6f6e2d636f6e747261637400000081525060200191505060405180910390fd5b600060608673ffffffffffffffffffffffffffffffffffffffff1685876040518082805190602001908083835b602083106114395780518252602082019150602081019050602083039250611416565b6001836020036101000a03801982511681845116808217855250505050505090500191505060006040518083038185875af1925050503d806000811461149b576040519150601f19603f3d011682016040523d82523d6000602084013e6114a0565b606091505b50915091506114b08282866114cf565b92505050949350505050565b600080823b905060008111915050919050565b606083156114df57829050611594565b6000835111156114f25782518084602001fd5b816040517f08c379a00000000000000000000000000000000000000000000000000000000081526004018080602001828103825283818151815260200191508051906020019080838360005b8381101561155957808201518184015260208101905061153e565b50505050905090810190601f1680156115865780820380516001836020036101000a031916815260200191505b509250505060405180910390fd5b939250505056fe4f776e61626c653a206e6577206f776e657220697320746865207a65726f2061646472657373416464726573733a20696e73756666696369656e742062616c616e636520666f722063616c6c5361666545524332303a204552433230206f7065726174696f6e20646964206e6f742073756363656564a2646970667358221220a3c456a101fcc8640ab77cbf3695a8b436c16681ab40d91b9a817a3d5ed1211864736f6c634300060c0033",
  "immutableReferences": {
    "1597": [
      {
        "length": 32,
        "start": 1131
      }
    ],
    "1599": [
      {
        "length": 32,
        "start": 2873
      },
      {
        "length": 32,
        "start": 3082
      },
      {
        "length": 32,
        "start": 3946
      }
    ],
    "2734": [
      {
        "length": 32,
        "start": 1817
      }
    ]
  },
  "source": "// SPDX-License-Identifier: MIT\r\npragma solidity >=0.6.6;\r\n\r\nimport { FlashLoanReceiverBase } from \"./FlashloanReceiverBase.sol\";\r\n// import { ILendingPool, ILendingPoolAddressesProvider, IERC20, IMockArbitrage } from \"./Interfaces.sol\";\r\nimport { ILendingPool, ILendingPoolAddressesProvider, IERC20 } from \"./Interfaces.sol\";\r\nimport { IJoeRouter02 } from \"../interfaces/traderjoe/IJoeRouter02.sol\"; \r\nimport { SafeMath } from \"./Libraries.sol\";\r\nimport { Withdrawable } from \"./Withdrawable.sol\";\r\n// import '@uniswap/v3-periphery/contracts/libraries/TransferHelper.sol';\r\n// import '@uniswap/v3-periphery/contracts/interfaces/ISwapRouter.sol';\r\n\r\ncontract FlashloanDemo is FlashLoanReceiverBase, Withdrawable {\r\n\r\n    event UpdatedArbitrageContract (address oldArbitrageContract, address newArbitrageContract);\r\n    \r\n    // IMockArbitrage arbitrageContract;\r\n    IJoeRouter02 public immutable joeRouter;\r\n\r\n    // constructor(address _addressProvider, address _arbitrageContract) FlashLoanReceiverBase(_addressProvider) public {\r\n    //     arbitrageContract = IMockArbitrage(_arbitrageContract);\r\n    // }\r\n    constructor(address _aaveLPAddressProvider, IJoeRouter02 _joeRouterAddress) FlashLoanReceiverBase(_aaveLPAddressProvider) public {\r\n        joeRouter = IJoeRouter02(_joeRouterAddress);\r\n    }\r\n\r\n    /**\r\n     * @dev This function must be called only be the LENDING_POOL and takes care of repaying\r\n     * active debt positions, migrating collateral and incurring new V2 debt token debt.\r\n     *\r\n     * @param assets The array of flash loaned assets used to repay debts.\r\n     * @param amounts The array of flash loaned asset amounts used to repay debts.\r\n     * @param premiums The array of premiums incurred as additional debts.\r\n     * @param initiator The address that initiated the flash loan, unused.\r\n     * @param params The byte array containing, in this case, the arrays of aTokens and aTokenAmounts.\r\n     */\r\n    function executeOperation(\r\n        address[] calldata assets,\r\n        uint256[] calldata amounts,\r\n        uint256[] calldata premiums,\r\n        address initiator,\r\n        bytes calldata params\r\n    )\r\n        external\r\n        override\r\n        returns (bool)\r\n    {\r\n        \r\n        //\r\n        // This contract now has the funds requested.\r\n        // Your logic goes here.\r\n        //\r\n        \r\n        // At the end of your logic above, this contract owes\r\n        // the flashloaned amounts + premiums.\r\n        // Therefore ensure your contract has enough to repay\r\n        // these amounts.\r\n        // arbitrageContract.takeArbitrage(assets[0]);\r\n        \r\n        // Approve the LendingPool contract allowance to *pull* the owed amount\r\n        for (uint i = 0; i < assets.length; i++) {\r\n            uint amountOwing = amounts[i].add(premiums[i]);\r\n            IERC20(assets[i]).approve(address(LENDING_POOL), amountOwing);\r\n        }\r\n\r\n        return true;\r\n    }\r\n\r\n    function _flashloan(address[] memory assets, uint256[] memory amounts) internal {\r\n        address receiverAddress = address(this);\r\n\r\n        address onBehalfOf = address(this);\r\n        bytes memory params = \"\";\r\n        uint16 referralCode = 0;\r\n\r\n        uint256[] memory modes = new uint256[](assets.length);\r\n\r\n        // 0 = no debt (flash), 1 = stable, 2 = variable\r\n        for (uint256 i = 0; i < assets.length; i++) {\r\n            modes[i] = 0;\r\n        }\r\n\r\n        LENDING_POOL.flashLoan(\r\n            receiverAddress,\r\n            assets,\r\n            amounts,\r\n            modes,\r\n            onBehalfOf,\r\n            params,\r\n            referralCode\r\n        );\r\n    }\r\n\r\n    /*\r\n     *  Flash loan wei amount worth of `_asset`\r\n     */\r\n    function flashloan(address _asset, uint256 _amount) public onlyOwner {\r\n        bytes memory data = \"\";\r\n        uint amount = _amount;\r\n\r\n        address[] memory assets = new address[](1);\r\n        assets[0] = _asset;\r\n\r\n        uint256[] memory amounts = new uint256[](1);\r\n        amounts[0] = amount;\r\n\r\n        _flashloan(assets, amounts);\r\n    }\r\n\r\n    // function setArbitrageContract (address _newArbitrageContract) external {\r\n    //     address _previousArbitrageContract = address(arbitrageContract);\r\n    //     arbitrageContract = IMockArbitrage(_newArbitrageContract);\r\n    //     emit UpdatedArbitrageContract (_previousArbitrageContract, _newArbitrageContract);\r\n    // }\r\n}",
  "sourcePath": "C:\\Users\\bwibr\\Documents\\flashloans\\contracts\\MyFlashloan.sol",
  "compiler": {
    "name": "solc",
    "version": "0.6.12+commit.27d51765.Emscripten.clang"
  },
  "schemaVersion": "3.4.7",
  "updatedAt": "2022-08-11T17:21:53.588Z",
  "devdoc": {
    "kind": "dev",
    "methods": {
      "executeOperation(address[],uint256[],uint256[],address,bytes)": {
        "details": "This function must be called only be the LENDING_POOL and takes care of repaying active debt positions, migrating collateral and incurring new V2 debt token debt.",
        "params": {
          "amounts": "The array of flash loaned asset amounts used to repay debts.",
          "assets": "The array of flash loaned assets used to repay debts.",
          "initiator": "The address that initiated the flash loan, unused.",
          "params": "The byte array containing, in this case, the arrays of aTokens and aTokenAmounts.",
          "premiums": "The array of premiums incurred as additional debts."
        }
      },
      "owner()": {
        "details": "Returns the address of the current owner."
      },
      "renounceOwnership()": {
        "details": "Leaves the contract without owner. It will not be possible to call `onlyOwner` functions anymore. Can only be called by the current owner. NOTE: Renouncing ownership will leave the contract without an owner, thereby removing any functionality that is only available to the owner."
      },
      "transferOwnership(address)": {
        "details": "Transfers ownership of the contract to a new account (`newOwner`). Can only be called by the current owner."
      },
      "withdraw(address)": {
        "details": "Withdraw asset.",
        "params": {
          "_assetAddress": "Asset to be withdrawn."
        }
      }
    },
    "version": 1
  },
  "userdoc": {
    "kind": "user",
    "methods": {},
    "version": 1
  }
}