{
  "contractName": "FlashloanDemo",
  "abi": [
    {
      "inputs": [
        {
          "internalType": "address",
          "name": "_aaveLPAddressProvider",
          "type": "address"
        },
        {
          "internalType": "address",
          "name": "_joeRouterAddress",
          "type": "address"
        },
        {
          "internalType": "address",
          "name": "_pangolinRouterAddress",
          "type": "address"
        }
      ],
      "stateMutability": "nonpayable",
      "type": "constructor"
    },
    {
      "anonymous": false,
      "inputs": [
        {
          "indexed": true,
          "internalType": "address",
          "name": "_from",
          "type": "address"
        },
        {
          "indexed": true,
          "internalType": "address",
          "name": "_assetAddress",
          "type": "address"
        },
        {
          "indexed": false,
          "internalType": "uint256",
          "name": "amount",
          "type": "uint256"
        }
      ],
      "name": "LogWithdraw",
      "type": "event"
    },
    {
      "anonymous": false,
      "inputs": [
        {
          "indexed": true,
          "internalType": "address",
          "name": "previousOwner",
          "type": "address"
        },
        {
          "indexed": true,
          "internalType": "address",
          "name": "newOwner",
          "type": "address"
        }
      ],
      "name": "OwnershipTransferred",
      "type": "event"
    },
    {
      "inputs": [],
      "name": "ADDRESSES_PROVIDER",
      "outputs": [
        {
          "internalType": "contract ILendingPoolAddressesProvider",
          "name": "",
          "type": "address"
        }
      ],
      "stateMutability": "view",
      "type": "function",
      "constant": true
    },
    {
      "inputs": [],
      "name": "LENDING_POOL",
      "outputs": [
        {
          "internalType": "contract ILendingPool",
          "name": "",
          "type": "address"
        }
      ],
      "stateMutability": "view",
      "type": "function",
      "constant": true
    },
    {
      "inputs": [],
      "name": "joeRouter",
      "outputs": [
        {
          "internalType": "contract IJoeRouter01",
          "name": "",
          "type": "address"
        }
      ],
      "stateMutability": "view",
      "type": "function",
      "constant": true
    },
    {
      "inputs": [],
      "name": "owner",
      "outputs": [
        {
          "internalType": "address",
          "name": "",
          "type": "address"
        }
      ],
      "stateMutability": "view",
      "type": "function",
      "constant": true
    },
    {
      "inputs": [],
      "name": "pangolinRouter",
      "outputs": [
        {
          "internalType": "contract IPangolinRouter",
          "name": "",
          "type": "address"
        }
      ],
      "stateMutability": "view",
      "type": "function",
      "constant": true
    },
    {
      "inputs": [],
      "name": "renounceOwnership",
      "outputs": [],
      "stateMutability": "nonpayable",
      "type": "function"
    },
    {
      "inputs": [
        {
          "internalType": "address",
          "name": "newOwner",
          "type": "address"
        }
      ],
      "name": "transferOwnership",
      "outputs": [],
      "stateMutability": "nonpayable",
      "type": "function"
    },
    {
      "inputs": [
        {
          "internalType": "address",
          "name": "_assetAddress",
          "type": "address"
        }
      ],
      "name": "withdraw",
      "outputs": [],
      "stateMutability": "nonpayable",
      "type": "function"
    },
    {
      "stateMutability": "payable",
      "type": "receive",
      "payable": true
    },
    {
      "inputs": [
        {
          "internalType": "address[]",
          "name": "assets",
          "type": "address[]"
        },
        {
          "internalType": "uint256[]",
          "name": "amounts",
          "type": "uint256[]"
        },
        {
          "internalType": "uint256[]",
          "name": "premiums",
          "type": "uint256[]"
        },
        {
          "internalType": "address",
          "name": "initiator",
          "type": "address"
        },
        {
          "internalType": "bytes",
          "name": "params",
          "type": "bytes"
        }
      ],
      "name": "executeOperation",
      "outputs": [
        {
          "internalType": "bool",
          "name": "",
          "type": "bool"
        }
      ],
      "stateMutability": "nonpayable",
      "type": "function"
    },
    {
      "inputs": [
        {
          "internalType": "address",
          "name": "_asset",
          "type": "address"
        },
        {
          "internalType": "uint256",
          "name": "_amount",
          "type": "uint256"
        },
        {
          "internalType": "bool",
          "name": "_buyJoe",
          "type": "bool"
        },
        {
          "internalType": "address",
          "name": "_token0",
          "type": "address"
        },
        {
          "internalType": "address",
          "name": "_token1",
          "type": "address"
        }
      ],
      "name": "flashloan",
      "outputs": [],
      "stateMutability": "nonpayable",
      "type": "function"
    }
  ],
  "bytecode": "0x6101006040523480156200001257600080fd5b506040516200289738038062002897833981810160405260608110156200003857600080fd5b81019080805190602001909291908051906020019092919080519060200190929190505050828073ffffffffffffffffffffffffffffffffffffffff1660808173ffffffffffffffffffffffffffffffffffffffff1660601b815250508073ffffffffffffffffffffffffffffffffffffffff16630261bf8b6040518163ffffffff1660e01b815260040160206040518083038186803b158015620000dc57600080fd5b505afa158015620000f1573d6000803e3d6000fd5b505050506040513d60208110156200010857600080fd5b810190808051906020019092919050505073ffffffffffffffffffffffffffffffffffffffff1660a08173ffffffffffffffffffffffffffffffffffffffff1660601b81525050506000620001626200027760201b60201c565b9050806000806101000a81548173ffffffffffffffffffffffffffffffffffffffff021916908373ffffffffffffffffffffffffffffffffffffffff1602179055508073ffffffffffffffffffffffffffffffffffffffff16600073ffffffffffffffffffffffffffffffffffffffff167f8be0079c531659141344cd1fd0a4f28419497f9722a3daafe3b4186f6b6457e060405160405180910390a3508173ffffffffffffffffffffffffffffffffffffffff1660c08173ffffffffffffffffffffffffffffffffffffffff1660601b815250508073ffffffffffffffffffffffffffffffffffffffff1660e08173ffffffffffffffffffffffffffffffffffffffff1660601b815250505050506200027f565b600033905090565b60805160601c60a05160601c60c05160601c60e05160601c6125a4620002f3600039806107d552806115875280611638528061181e52806118e25250806107b1528061122a52806112ee5280611b7b5280611c2c525080610a215280610af25280611edf52508061050352506125a46000f3fe6080604052600436106100955760003560e01c80638da5cb5b116100595780638da5cb5b146101cc578063920f5c841461020d578063b4dcfc77146103c8578063c28d2c3414610409578063f2fde38b146104b05761009c565b80630542975c146100a157806351cff8d9146100e257806359f571e8146101335780635af0cd9014610174578063715018a6146101b55761009c565b3661009c57005b600080fd5b3480156100ad57600080fd5b506100b6610501565b604051808273ffffffffffffffffffffffffffffffffffffffff16815260200191505060405180910390f35b3480156100ee57600080fd5b506101316004803603602081101561010557600080fd5b81019080803573ffffffffffffffffffffffffffffffffffffffff169060200190929190505050610525565b005b34801561013f57600080fd5b506101486107af565b604051808273ffffffffffffffffffffffffffffffffffffffff16815260200191505060405180910390f35b34801561018057600080fd5b506101896107d3565b604051808273ffffffffffffffffffffffffffffffffffffffff16815260200191505060405180910390f35b3480156101c157600080fd5b506101ca6107f7565b005b3480156101d857600080fd5b506101e1610964565b604051808273ffffffffffffffffffffffffffffffffffffffff16815260200191505060405180910390f35b34801561021957600080fd5b506103b0600480360360a081101561023057600080fd5b810190808035906020019064010000000081111561024d57600080fd5b82018360208201111561025f57600080fd5b8035906020019184602083028401116401000000008311171561028157600080fd5b9091929391929390803590602001906401000000008111156102a257600080fd5b8201836020820111156102b457600080fd5b803590602001918460208302840111640100000000831117156102d657600080fd5b9091929391929390803590602001906401000000008111156102f757600080fd5b82018360208201111561030957600080fd5b8035906020019184602083028401116401000000008311171561032b57600080fd5b9091929391929390803573ffffffffffffffffffffffffffffffffffffffff1690602001909291908035906020019064010000000081111561036c57600080fd5b82018360208201111561037e57600080fd5b803590602001918460018302840111640100000000831117156103a057600080fd5b909192939192939050505061098d565b60405180821515815260200191505060405180910390f35b3480156103d457600080fd5b506103dd610af0565b604051808273ffffffffffffffffffffffffffffffffffffffff16815260200191505060405180910390f35b34801561041557600080fd5b506104ae600480360360a081101561042c57600080fd5b81019080803573ffffffffffffffffffffffffffffffffffffffff16906020019092919080359060200190929190803515159060200190929190803573ffffffffffffffffffffffffffffffffffffffff169060200190929190803573ffffffffffffffffffffffffffffffffffffffff169060200190929190505050610b14565b005b3480156104bc57600080fd5b506104ff600480360360208110156104d357600080fd5b81019080803573ffffffffffffffffffffffffffffffffffffffff169060200190929190505050610d3a565b005b7f000000000000000000000000000000000000000000000000000000000000000081565b61052d610f2c565b73ffffffffffffffffffffffffffffffffffffffff1661054b610964565b73ffffffffffffffffffffffffffffffffffffffff16146105d4576040517f08c379a00000000000000000000000000000000000000000000000000000000081526004018080602001828103825260208152602001807f4f776e61626c653a2063616c6c6572206973206e6f7420746865206f776e657281525060200191505060405180910390fd5b60008073ffffffffffffffffffffffffffffffffffffffff168273ffffffffffffffffffffffffffffffffffffffff1614156106765760003090508073ffffffffffffffffffffffffffffffffffffffff163191503373ffffffffffffffffffffffffffffffffffffffff166108fc839081150290604051600060405180830381858888f1935050505015801561066f573d6000803e3d6000fd5b5050610746565b8173ffffffffffffffffffffffffffffffffffffffff166370a08231306040518263ffffffff1660e01b8152600401808273ffffffffffffffffffffffffffffffffffffffff16815260200191505060206040518083038186803b1580156106dd57600080fd5b505afa1580156106f1573d6000803e3d6000fd5b505050506040513d602081101561070757600080fd5b8101908080519060200190929190505050905061074533828473ffffffffffffffffffffffffffffffffffffffff16610f349092919063ffffffff16565b5b8173ffffffffffffffffffffffffffffffffffffffff163373ffffffffffffffffffffffffffffffffffffffff167f9207361cc2a04b9c7a06691df1eb87c6a63957ae88bf01d0d18c81e3d1272099836040518082815260200191505060405180910390a35050565b7f000000000000000000000000000000000000000000000000000000000000000081565b7f000000000000000000000000000000000000000000000000000000000000000081565b6107ff610f2c565b73ffffffffffffffffffffffffffffffffffffffff1661081d610964565b73ffffffffffffffffffffffffffffffffffffffff16146108a6576040517f08c379a00000000000000000000000000000000000000000000000000000000081526004018080602001828103825260208152602001807f4f776e61626c653a2063616c6c6572206973206e6f7420746865206f776e657281525060200191505060405180910390fd5b600073ffffffffffffffffffffffffffffffffffffffff1660008054906101000a900473ffffffffffffffffffffffffffffffffffffffff1673ffffffffffffffffffffffffffffffffffffffff167f8be0079c531659141344cd1fd0a4f28419497f9722a3daafe3b4186f6b6457e060405160405180910390a360008060006101000a81548173ffffffffffffffffffffffffffffffffffffffff021916908373ffffffffffffffffffffffffffffffffffffffff160217905550565b60008060009054906101000a900473ffffffffffffffffffffffffffffffffffffffff16905090565b600061099b88888585610fd6565b60005b8a8a9050811015610ade5760006109d98a8a848181106109ba57fe5b905060200201358989858181106109cd57fe5b90506020020135611dfd565b90508b8b838181106109e757fe5b9050602002013573ffffffffffffffffffffffffffffffffffffffff1673ffffffffffffffffffffffffffffffffffffffff1663095ea7b37f0000000000000000000000000000000000000000000000000000000000000000836040518363ffffffff1660e01b8152600401808373ffffffffffffffffffffffffffffffffffffffff16815260200182815260200192505050602060405180830381600087803b158015610a9457600080fd5b505af1158015610aa8573d6000803e3d6000fd5b505050506040513d6020811015610abe57600080fd5b81019080805190602001909291905050505050808060010191505061099e565b50600190509998505050505050505050565b7f000000000000000000000000000000000000000000000000000000000000000081565b610b1c610f2c565b73ffffffffffffffffffffffffffffffffffffffff16610b3a610964565b73ffffffffffffffffffffffffffffffffffffffff1614610bc3576040517f08c379a00000000000000000000000000000000000000000000000000000000081526004018080602001828103825260208152602001807f4f776e61626c653a2063616c6c6572206973206e6f7420746865206f776e657281525060200191505060405180910390fd5b60008383836040516020018084151581526020018373ffffffffffffffffffffffffffffffffffffffff1681526020018273ffffffffffffffffffffffffffffffffffffffff1681526020019350505050604051602081830303815290604052905060008590506000600167ffffffffffffffff81118015610c4457600080fd5b50604051908082528060200260200182016040528015610c735781602001602082028036833780820191505090505b5090508781600081518110610c8457fe5b602002602001019073ffffffffffffffffffffffffffffffffffffffff16908173ffffffffffffffffffffffffffffffffffffffff16815250506000600167ffffffffffffffff81118015610cd857600080fd5b50604051908082528060200260200182016040528015610d075781602001602082028036833780820191505090505b5090508281600081518110610d1857fe5b602002602001018181525050610d2f828286611e52565b505050505050505050565b610d42610f2c565b73ffffffffffffffffffffffffffffffffffffffff16610d60610964565b73ffffffffffffffffffffffffffffffffffffffff1614610de9576040517f08c379a00000000000000000000000000000000000000000000000000000000081526004018080602001828103825260208152602001807f4f776e61626c653a2063616c6c6572206973206e6f7420746865206f776e657281525060200191505060405180910390fd5b600073ffffffffffffffffffffffffffffffffffffffff168173ffffffffffffffffffffffffffffffffffffffff161415610e6f576040517f08c379a00000000000000000000000000000000000000000000000000000000081526004018080602001828103825260268152602001806124f96026913960400191505060405180910390fd5b8073ffffffffffffffffffffffffffffffffffffffff1660008054906101000a900473ffffffffffffffffffffffffffffffffffffffff1673ffffffffffffffffffffffffffffffffffffffff167f8be0079c531659141344cd1fd0a4f28419497f9722a3daafe3b4186f6b6457e060405160405180910390a3806000806101000a81548173ffffffffffffffffffffffffffffffffffffffff021916908373ffffffffffffffffffffffffffffffffffffffff16021790555050565b600033905090565b610fd18363a9059cbb60e01b8484604051602401808373ffffffffffffffffffffffffffffffffffffffff16815260200182815260200192505050604051602081830303815290604052907bffffffffffffffffffffffffffffffffffffffffffffffffffffffff19166020820180517bffffffffffffffffffffffffffffffffffffffffffffffffffffffff83818316178352505050506120f9565b505050565b600080600084846060811015610feb57600080fd5b81019080803515159060200190929190803573ffffffffffffffffffffffffffffffffffffffff169060200190929190803573ffffffffffffffffffffffffffffffffffffffff169060200190929190505050925092509250600082905060008290506000600267ffffffffffffffff8111801561106857600080fd5b506040519080825280602002602001820160405280156110975781602001602082028036833780820191505090505b50905084816000815181106110a857fe5b602002602001019073ffffffffffffffffffffffffffffffffffffffff16908173ffffffffffffffffffffffffffffffffffffffff168152505083816001815181106110f057fe5b602002602001019073ffffffffffffffffffffffffffffffffffffffff16908173ffffffffffffffffffffffffffffffffffffffff16815250506000600267ffffffffffffffff8111801561114457600080fd5b506040519080825280602002602001820160405280156111735781602001602082028036833780820191505090505b509050848160008151811061118457fe5b602002602001019073ffffffffffffffffffffffffffffffffffffffff16908173ffffffffffffffffffffffffffffffffffffffff168152505085816001815181106111cc57fe5b602002602001019073ffffffffffffffffffffffffffffffffffffffff16908173ffffffffffffffffffffffffffffffffffffffff16815250508615611800578373ffffffffffffffffffffffffffffffffffffffff1663095ea7b37f00000000000000000000000000000000000000000000000000000000000000008d8d600081811061125657fe5b905060200201356040518363ffffffff1660e01b8152600401808373ffffffffffffffffffffffffffffffffffffffff16815260200182815260200192505050602060405180830381600087803b1580156112b057600080fd5b505af11580156112c4573d6000803e3d6000fd5b505050506040513d60208110156112da57600080fd5b8101908080519060200190929190505050507f000000000000000000000000000000000000000000000000000000000000000073ffffffffffffffffffffffffffffffffffffffff166338ed17398c8c600081811061133557fe5b9050602002013560008530603c42016040518663ffffffff1660e01b815260040180868152602001858152602001806020018473ffffffffffffffffffffffffffffffffffffffff168152602001838152602001828103825285818151815260200191508051906020019060200280838360005b838110156113c45780820151818401526020810190506113a9565b505050509050019650505050505050600060405180830381600087803b1580156113ed57600080fd5b505af1158015611401573d6000803e3d6000fd5b505050506040513d6000823e3d601f19601f82011682018060405250602081101561142b57600080fd5b810190808051604051939291908464010000000082111561144b57600080fd5b8382019150602082018581111561146157600080fd5b825186602082028301116401000000008211171561147e57600080fd5b8083526020830192505050908051906020019060200280838360005b838110156114b557808201518184015260208101905061149a565b505050509050016040525050505060008373ffffffffffffffffffffffffffffffffffffffff166370a08231306040518263ffffffff1660e01b8152600401808273ffffffffffffffffffffffffffffffffffffffff16815260200191505060206040518083038186803b15801561152c57600080fd5b505afa158015611540573d6000803e3d6000fd5b505050506040513d602081101561155657600080fd5b810190808051906020019092919050505090508373ffffffffffffffffffffffffffffffffffffffff1663095ea7b37f0000000000000000000000000000000000000000000000000000000000000000836040518363ffffffff1660e01b8152600401808373ffffffffffffffffffffffffffffffffffffffff16815260200182815260200192505050602060405180830381600087803b1580156115fa57600080fd5b505af115801561160e573d6000803e3d6000fd5b505050506040513d602081101561162457600080fd5b8101908080519060200190929190505050507f000000000000000000000000000000000000000000000000000000000000000073ffffffffffffffffffffffffffffffffffffffff166338ed17398260008530603c42016040518663ffffffff1660e01b815260040180868152602001858152602001806020018473ffffffffffffffffffffffffffffffffffffffff168152602001838152602001828103825285818151815260200191508051906020019060200280838360005b838110156116fb5780820151818401526020810190506116e0565b505050509050019650505050505050600060405180830381600087803b15801561172457600080fd5b505af1158015611738573d6000803e3d6000fd5b505050506040513d6000823e3d601f19601f82011682018060405250602081101561176257600080fd5b810190808051604051939291908464010000000082111561178257600080fd5b8382019150602082018581111561179857600080fd5b82518660208202830111640100000000821117156117b557600080fd5b8083526020830192505050908051906020019060200280838360005b838110156117ec5780820151818401526020810190506117d1565b505050509050016040525050505050611df0565b8373ffffffffffffffffffffffffffffffffffffffff1663095ea7b37f00000000000000000000000000000000000000000000000000000000000000008d8d600081811061184a57fe5b905060200201356040518363ffffffff1660e01b8152600401808373ffffffffffffffffffffffffffffffffffffffff16815260200182815260200192505050602060405180830381600087803b1580156118a457600080fd5b505af11580156118b8573d6000803e3d6000fd5b505050506040513d60208110156118ce57600080fd5b8101908080519060200190929190505050507f000000000000000000000000000000000000000000000000000000000000000073ffffffffffffffffffffffffffffffffffffffff166338ed17398c8c600081811061192957fe5b9050602002013560008530603c42016040518663ffffffff1660e01b815260040180868152602001858152602001806020018473ffffffffffffffffffffffffffffffffffffffff168152602001838152602001828103825285818151815260200191508051906020019060200280838360005b838110156119b857808201518184015260208101905061199d565b505050509050019650505050505050600060405180830381600087803b1580156119e157600080fd5b505af11580156119f5573d6000803e3d6000fd5b505050506040513d6000823e3d601f19601f820116820180604052506020811015611a1f57600080fd5b8101908080516040519392919084640100000000821115611a3f57600080fd5b83820191506020820185811115611a5557600080fd5b8251866020820283011164010000000082111715611a7257600080fd5b8083526020830192505050908051906020019060200280838360005b83811015611aa9578082015181840152602081019050611a8e565b505050509050016040525050505060008373ffffffffffffffffffffffffffffffffffffffff166370a08231306040518263ffffffff1660e01b8152600401808273ffffffffffffffffffffffffffffffffffffffff16815260200191505060206040518083038186803b158015611b2057600080fd5b505afa158015611b34573d6000803e3d6000fd5b505050506040513d6020811015611b4a57600080fd5b810190808051906020019092919050505090508373ffffffffffffffffffffffffffffffffffffffff1663095ea7b37f0000000000000000000000000000000000000000000000000000000000000000836040518363ffffffff1660e01b8152600401808373ffffffffffffffffffffffffffffffffffffffff16815260200182815260200192505050602060405180830381600087803b158015611bee57600080fd5b505af1158015611c02573d6000803e3d6000fd5b505050506040513d6020811015611c1857600080fd5b8101908080519060200190929190505050507f000000000000000000000000000000000000000000000000000000000000000073ffffffffffffffffffffffffffffffffffffffff166338ed17398260008530603c42016040518663ffffffff1660e01b815260040180868152602001858152602001806020018473ffffffffffffffffffffffffffffffffffffffff168152602001838152602001828103825285818151815260200191508051906020019060200280838360005b83811015611cef578082015181840152602081019050611cd4565b505050509050019650505050505050600060405180830381600087803b158015611d1857600080fd5b505af1158015611d2c573d6000803e3d6000fd5b505050506040513d6000823e3d601f19601f820116820180604052506020811015611d5657600080fd5b8101908080516040519392919084640100000000821115611d7657600080fd5b83820191506020820185811115611d8c57600080fd5b8251866020820283011164010000000082111715611da957600080fd5b8083526020830192505050908051906020019060200280838360005b83811015611de0578082015181840152602081019050611dc5565b5050505090500160405250505050505b5050505050505050505050565b600080828401905083811015611e48576040517f08c379a0000000000000000000000000000000000000000000000000000000008152600401611e3f906124c7565b60405180910390fd5b8091505092915050565b60003090506000309050600080865167ffffffffffffffff81118015611e7757600080fd5b50604051908082528060200260200182016040528015611ea65781602001602082028036833780820191505090505b50905060005b8751811015611edc576000828281518110611ec357fe5b6020026020010181815250508080600101915050611eac565b507f000000000000000000000000000000000000000000000000000000000000000073ffffffffffffffffffffffffffffffffffffffff1663ab9c4b5d85898985888b896040518863ffffffff1660e01b8152600401808873ffffffffffffffffffffffffffffffffffffffff1681526020018060200180602001806020018773ffffffffffffffffffffffffffffffffffffffff168152602001806020018661ffff16815260200185810385528b818151815260200191508051906020019060200280838360005b83811015611fc0578082015181840152602081019050611fa5565b5050505090500185810384528a818151815260200191508051906020019060200280838360005b83811015612002578082015181840152602081019050611fe7565b50505050905001858103835289818151815260200191508051906020019060200280838360005b83811015612044578082015181840152602081019050612029565b50505050905001858103825287818151815260200191508051906020019080838360005b83811015612083578082015181840152602081019050612068565b50505050905090810190601f1680156120b05780820380516001836020036101000a031916815260200191505b509b505050505050505050505050600060405180830381600087803b1580156120d857600080fd5b505af11580156120ec573d6000803e3d6000fd5b5050505050505050505050565b600061215b826040518060400160405280602081526020017f5361666545524332303a206c6f772d6c6576656c2063616c6c206661696c65648152508573ffffffffffffffffffffffffffffffffffffffff166121e89092919063ffffffff16565b90506000815111156121e35780806020019051602081101561217c57600080fd5b81019080805190602001909291905050506121e2576040517f08c379a000000000000000000000000000000000000000000000000000000000815260040180806020018281038252602a815260200180612545602a913960400191505060405180910390fd5b5b505050565b60606121f78484600085612200565b90509392505050565b60608247101561225b576040517f08c379a000000000000000000000000000000000000000000000000000000000815260040180806020018281038252602681526020018061251f6026913960400191505060405180910390fd5b612264856123a8565b6122d6576040517f08c379a000000000000000000000000000000000000000000000000000000000815260040180806020018281038252601d8152602001807f416464726573733a2063616c6c20746f206e6f6e2d636f6e747261637400000081525060200191505060405180910390fd5b6000808673ffffffffffffffffffffffffffffffffffffffff1685876040518082805190602001908083835b602083106123255780518252602082019150602081019050602083039250612302565b6001836020036101000a03801982511681845116808217855250505050505090500191505060006040518083038185875af1925050503d8060008114612387576040519150601f19603f3d011682016040523d82523d6000602084013e61238c565b606091505b509150915061239c8282866123bb565b92505050949350505050565b600080823b905060008111915050919050565b606083156123cb57829050612480565b6000835111156123de5782518084602001fd5b816040517f08c379a00000000000000000000000000000000000000000000000000000000081526004018080602001828103825283818151815260200191508051906020019080838360005b8381101561244557808201518184015260208101905061242a565b50505050905090810190601f1680156124725780820380516001836020036101000a031916815260200191505b509250505060405180910390fd5b9392505050565b6000612494601b836124e7565b91507f536166654d6174683a206164646974696f6e206f766572666c6f7700000000006000830152602082019050919050565b600060208201905081810360008301526124e081612487565b9050919050565b60008282526020820190509291505056fe4f776e61626c653a206e6577206f776e657220697320746865207a65726f2061646472657373416464726573733a20696e73756666696369656e742062616c616e636520666f722063616c6c5361666545524332303a204552433230206f7065726174696f6e20646964206e6f742073756363656564a2646970667358221220b3ad8aecfcf2b8dd06cb4278d42b3e54144d2d2fdd19170dfbe25c78180df7dd64736f6c63430007060033",
  "immutableReferences": {
    "1597": [
      {
        "length": 32,
        "start": 1283
      }
    ],
    "1599": [
      {
        "length": 32,
        "start": 2593
      },
      {
        "length": 32,
        "start": 2802
      },
      {
        "length": 32,
        "start": 7903
      }
    ],
    "2732": [
      {
        "length": 32,
        "start": 1969
      },
      {
        "length": 32,
        "start": 4650
      },
      {
        "length": 32,
        "start": 4846
      },
      {
        "length": 32,
        "start": 7035
      },
      {
        "length": 32,
        "start": 7212
      }
    ],
    "2734": [
      {
        "length": 32,
        "start": 2005
      },
      {
        "length": 32,
        "start": 5511
      },
      {
        "length": 32,
        "start": 5688
      },
      {
        "length": 32,
        "start": 6174
      },
      {
        "length": 32,
        "start": 6370
      }
    ]
  },
  "source": "// SPDX-License-Identifier: MIT\r\npragma solidity >=0.6.6;\r\n\r\nimport { FlashLoanReceiverBase } from \"./FlashloanReceiverBase.sol\";\r\n// import { ILendingPool, ILendingPoolAddressesProvider, IERC20Joe, IMockArbitrage } from \"./Interfaces.sol\";\r\nimport { ILendingPool, ILendingPoolAddressesProvider, IERC20 } from \"./Interfaces.sol\";\r\nimport { IJoeRouter01 } from \"../interfaces/traderjoe/IJoeRouter01.sol\"; \r\nimport { IPangolinRouter } from \"../interfaces/pangolin/IPangolinRouter.sol\";\r\nimport { IERC20Joe } from \"../interfaces/traderjoe/IERC20.sol\"; \r\nimport { SafeMath } from \"./Libraries.sol\";\r\nimport { Withdrawable } from \"./Withdrawable.sol\";\r\n// import '@uniswap/v3-periphery/contracts/libraries/TransferHelper.sol';\r\n// import '@uniswap/v3-periphery/contracts/interfaces/ISwapRouter.sol';\r\n\r\ncontract FlashloanDemo is FlashLoanReceiverBase, Withdrawable {\r\n\r\n    // event UpdatedArbitrageContract (address oldArbitrageContract, address newArbitrageContract);\r\n    \r\n    // IMockArbitrage arbitrageContract;\r\n    IJoeRouter01 public immutable joeRouter;\r\n    IPangolinRouter public immutable pangolinRouter;\r\n\r\n    // constructor(address _addressProvider, address _arbitrageContract) FlashLoanReceiverBase(_addressProvider) public {\r\n    //     arbitrageContract = IMockArbitrage(_arbitrageContract);\r\n    // }\r\n    constructor(address _aaveLPAddressProvider, address _joeRouterAddress, address _pangolinRouterAddress) FlashLoanReceiverBase(_aaveLPAddressProvider) public {\r\n        joeRouter = IJoeRouter01(_joeRouterAddress);\r\n        pangolinRouter = IPangolinRouter(_pangolinRouterAddress);\r\n    }\r\n\r\n    /**\r\n     * @dev This function must be called only be the LENDING_POOL and takes care of repaying\r\n     * active debt positions, migrating collateral and incurring new V2 debt token debt.\r\n     *\r\n     * @param assets The array of flash loaned assets used to repay debts.\r\n     * @param amounts The array of flash loaned asset amounts used to repay debts.\r\n     * @param premiums The array of premiums incurred as additional debts.\r\n     * @param initiator The address that initiated the flash loan, unused.\r\n     * @param params The byte array containing, in this case, the arrays of aTokens and aTokenAmounts.\r\n     */\r\n    function executeOperation(\r\n        address[] calldata assets,\r\n        uint256[] calldata amounts,\r\n        uint256[] calldata premiums,\r\n        address initiator,\r\n        bytes calldata params\r\n    )\r\n        external\r\n        override\r\n        returns (bool)\r\n    {\r\n        \r\n        //\r\n        // This contract now has the funds requested.\r\n        // Your logic goes here.\r\n        //\r\n        _swap(amounts, params);\r\n\r\n        // At the end of your logic above, this contract owes\r\n        // the flashloaned amounts + premiums.\r\n        // Therefore ensure your contract has enough to repay\r\n        // these amounts.\r\n        // arbitrageContract.takeArbitrage(assets[0]);\r\n        \r\n        // Approve the LendingPool contract allowance to *pull* the owed amount\r\n        for (uint i = 0; i < assets.length; i++) {\r\n            uint amountOwing = SafeMath.add(amounts[i], premiums[i]);\r\n            // uint amountOwing = amounts[i].add(premiums[i]);\r\n\r\n            IERC20Joe(assets[i]).approve(address(LENDING_POOL), amountOwing);\r\n        }\r\n\r\n        return true;\r\n    }\r\n\r\n    function _swap(uint256[] calldata amounts, bytes calldata params) internal {\r\n        (bool _buyJoe, address _token0, address _token1) = abi.decode(params, (bool, address, address));\r\n        IERC20Joe token0 = IERC20Joe(_token0);\r\n        IERC20Joe token1 = IERC20Joe(_token1);\r\n        \r\n        address[] memory path0 = new address[](2);\r\n        path0[0] = _token0;\r\n        path0[1] = _token1;\r\n\r\n        address[] memory path1 = new address[](2);\r\n        path1[0] = _token1;\r\n        path1[1] = _token0;\r\n\r\n        if (_buyJoe) {\r\n            token0.approve(address(joeRouter), amounts[0]);\r\n            // joeRouter.swapExactAVAXForTokens{value: amounts[0]}(0, path0, address(this), block.timestamp + 60);\r\n            joeRouter.swapExactTokensForTokens(amounts[0], 0, path0, address(this), block.timestamp + 60);\r\n            uint256 amountReceived1 = token1.balanceOf(address(this));\r\n            token1.approve(address(pangolinRouter), amountReceived1);\r\n            // uint256[] memory amountReceived2 = pangolinRouter.swapExactTokensForAVAX(amountReceived1[0], 0, pangolinPath, address(this), block.timestamp + 60);\r\n            // pangolinRouter.swapExactTokensForAVAX(amountReceived1, 0, path1, address(this), block.timestamp + 60);\r\n            pangolinRouter.swapExactTokensForTokens(amountReceived1, 0, path1, address(this), block.timestamp + 60);\r\n\r\n        }\r\n        else {\r\n            token0.approve(address(pangolinRouter), amounts[0]);\r\n            // pangolinRouter.swapExactAVAXForTokens{value: amounts[0]}(0, path0, address(this), block.timestamp + 60);\r\n            pangolinRouter.swapExactTokensForTokens(amounts[0], 0, path0, address(this), block.timestamp + 60);\r\n            uint256 amountReceived1 = token1.balanceOf(address(this));\r\n            token1.approve(address(joeRouter), amountReceived1);\r\n            // uint256[] memory amountReceived2 = joeRouter.swapExactTokensForAVAX(amountReceived1[0], 0, path1, address(this), block.timestamp + 60);\r\n            // joeRouter.swapExactTokensForAVAX(amountReceived1, 0, path1, address(this), block.timestamp + 60);\r\n            joeRouter.swapExactTokensForTokens(amountReceived1, 0, path1, address(this), block.timestamp + 60);\r\n        }\r\n    }\r\n\r\n    function _flashloan(address[] memory assets, uint256[] memory amounts, bytes memory params) internal {\r\n        address receiverAddress = address(this);\r\n\r\n        address onBehalfOf = address(this);\r\n        // bytes memory params = \"\";\r\n        uint16 referralCode = 0;\r\n\r\n        uint256[] memory modes = new uint256[](assets.length);\r\n\r\n        // 0 = no debt (flash), 1 = stable, 2 = variable\r\n        for (uint256 i = 0; i < assets.length; i++) {\r\n            modes[i] = 0;\r\n        }\r\n\r\n        LENDING_POOL.flashLoan(\r\n            receiverAddress,\r\n            assets,\r\n            amounts,\r\n            modes,\r\n            onBehalfOf,\r\n            params,\r\n            referralCode\r\n        );\r\n    }\r\n\r\n    /*\r\n     *  Flash loan wei amount worth of `_asset`\r\n     */\r\n    function flashloan(address _asset, uint256 _amount, bool _buyJoe, address _token0, address _token1) public onlyOwner {\r\n        bytes memory params = abi.encode(_buyJoe, _token0, _token1);\r\n        uint amount = _amount;\r\n\r\n        address[] memory assets = new address[](1);\r\n        assets[0] = _asset;\r\n\r\n        uint256[] memory amounts = new uint256[](1);\r\n        amounts[0] = amount;\r\n\r\n        _flashloan(assets, amounts, params);\r\n    }\r\n\r\n    // function setArbitrageContract (address _newArbitrageContract) external {\r\n    //     address _previousArbitrageContract = address(arbitrageContract);\r\n    //     arbitrageContract = IMockArbitrage(_newArbitrageContract);\r\n    //     emit UpdatedArbitrageContract (_previousArbitrageContract, _newArbitrageContract);\r\n    // }\r\n}",
  "sourcePath": "C:\\Users\\bwibr\\Documents\\flashloans\\contracts\\MyFlashloan.sol",
  "compiler": {
    "name": "solc",
    "version": "0.7.6+commit.7338295f.Emscripten.clang"
  },
  "schemaVersion": "3.4.7",
  "updatedAt": "2022-08-15T20:21:52.961Z",
  "networkType": "ethereum",
  "devdoc": {
    "kind": "dev",
    "methods": {
      "executeOperation(address[],uint256[],uint256[],address,bytes)": {
        "details": "This function must be called only be the LENDING_POOL and takes care of repaying active debt positions, migrating collateral and incurring new V2 debt token debt.",
        "params": {
          "amounts": "The array of flash loaned asset amounts used to repay debts.",
          "assets": "The array of flash loaned assets used to repay debts.",
          "initiator": "The address that initiated the flash loan, unused.",
          "params": "The byte array containing, in this case, the arrays of aTokens and aTokenAmounts.",
          "premiums": "The array of premiums incurred as additional debts."
        }
      },
      "owner()": {
        "details": "Returns the address of the current owner."
      },
      "renounceOwnership()": {
        "details": "Leaves the contract without owner. It will not be possible to call `onlyOwner` functions anymore. Can only be called by the current owner. NOTE: Renouncing ownership will leave the contract without an owner, thereby removing any functionality that is only available to the owner."
      },
      "transferOwnership(address)": {
        "details": "Transfers ownership of the contract to a new account (`newOwner`). Can only be called by the current owner."
      },
      "withdraw(address)": {
        "details": "Withdraw asset.",
        "params": {
          "_assetAddress": "Asset to be withdrawn."
        }
      }
    },
    "version": 1
  },
  "userdoc": {
    "kind": "user",
    "methods": {},
    "version": 1
  }
}